{
  "contractName": "Admin",
  "abi": [
    {
      "constant": true,
      "inputs": [
        {
          "name": "",
          "type": "uint256"
        }
      ],
      "name": "allowlist",
      "outputs": [
        {
          "name": "",
          "type": "address"
        }
      ],
      "payable": false,
      "stateMutability": "view",
      "type": "function"
    },
    {
      "inputs": [],
      "payable": false,
      "stateMutability": "nonpayable",
      "type": "constructor"
    },
    {
      "anonymous": false,
      "inputs": [
        {
          "indexed": false,
          "name": "adminAdded",
          "type": "bool"
        },
        {
          "indexed": true,
          "name": "accountGrantee",
          "type": "address"
        },
        {
          "indexed": true,
          "name": "accountGrantor",
          "type": "address"
        },
        {
          "indexed": true,
          "name": "blockTimestamp",
          "type": "uint256"
        },
        {
          "indexed": false,
          "name": "message",
          "type": "string"
        }
      ],
      "name": "AdminAdded",
      "type": "event"
    },
    {
      "anonymous": false,
      "inputs": [
        {
          "indexed": false,
          "name": "adminRemoved",
          "type": "bool"
        },
        {
          "indexed": true,
          "name": "accountGrantee",
          "type": "address"
        },
        {
          "indexed": true,
          "name": "accountGrantor",
          "type": "address"
        },
        {
          "indexed": true,
          "name": "blockTimestamp",
          "type": "uint256"
        }
      ],
      "name": "AdminRemoved",
      "type": "event"
    },
    {
      "constant": true,
      "inputs": [
        {
          "name": "_address",
          "type": "address"
        }
      ],
      "name": "isAuthorized",
      "outputs": [
        {
          "name": "",
          "type": "bool"
        }
      ],
      "payable": false,
      "stateMutability": "view",
      "type": "function"
    },
    {
      "constant": false,
      "inputs": [
        {
          "name": "_address",
          "type": "address"
        }
      ],
      "name": "addAdmin",
      "outputs": [
        {
          "name": "",
          "type": "bool"
        }
      ],
      "payable": false,
      "stateMutability": "nonpayable",
      "type": "function"
    },
    {
      "constant": false,
      "inputs": [
        {
          "name": "_address",
          "type": "address"
        }
      ],
      "name": "removeAdmin",
      "outputs": [
        {
          "name": "",
          "type": "bool"
        }
      ],
      "payable": false,
      "stateMutability": "nonpayable",
      "type": "function"
    },
    {
      "constant": true,
      "inputs": [],
      "name": "getAdmins",
      "outputs": [
        {
          "name": "",
          "type": "address[]"
        }
      ],
      "payable": false,
      "stateMutability": "view",
      "type": "function"
    },
    {
      "constant": false,
      "inputs": [
        {
          "name": "accounts",
          "type": "address[]"
        }
      ],
      "name": "addAdmins",
      "outputs": [
        {
          "name": "",
          "type": "bool"
        }
      ],
      "payable": false,
      "stateMutability": "nonpayable",
      "type": "function"
    }
  ],
  "bytecode": "0x608060405234801561001057600080fd5b506100203361002660201b60201c565b5061012a565b600080600160008473ffffffffffffffffffffffffffffffffffffffff1673ffffffffffffffffffffffffffffffffffffffff1681526020019081526020016000205414156101205760008290806001815401808255809150509060018203906000526020600020016000909192909190916101000a81548173ffffffffffffffffffffffffffffffffffffffff021916908373ffffffffffffffffffffffffffffffffffffffff160217905550600160008473ffffffffffffffffffffffffffffffffffffffff1673ffffffffffffffffffffffffffffffffffffffff1681526020019081526020016000208190555060019050610125565b600090505b919050565b611045806101396000396000f3fe608060405234801561001057600080fd5b50600436106100625760003560e01c80631785f53c1461006757806331ae450b146100c357806369c458241461012257806370480275146101905780639c54df64146101ec578063fe9fbb80146102bc575b600080fd5b6100a96004803603602081101561007d57600080fd5b81019080803573ffffffffffffffffffffffffffffffffffffffff169060200190929190505050610318565b604051808215151515815260200191505060405180910390f35b6100cb61049c565b6040518080602001828103825283818151815260200191508051906020019060200280838360005b8381101561010e5780820151818401526020810190506100f3565b505050509050019250505060405180910390f35b61014e6004803603602081101561013857600080fd5b810190808035906020019092919050505061052a565b604051808273ffffffffffffffffffffffffffffffffffffffff1673ffffffffffffffffffffffffffffffffffffffff16815260200191505060405180910390f35b6101d2600480360360208110156101a657600080fd5b81019080803573ffffffffffffffffffffffffffffffffffffffff169060200190929190505050610566565b604051808215151515815260200191505060405180910390f35b6102a26004803603602081101561020257600080fd5b810190808035906020019064010000000081111561021f57600080fd5b82018360208201111561023157600080fd5b8035906020019184602083028401116401000000008311171561025357600080fd5b919080806020026020016040519081016040528093929190818152602001838360200280828437600081840152601f19601f820116905080830192505050505050509192919290505050610811565b604051808215151515815260200191505060405180910390f35b6102fe600480360360208110156102d257600080fd5b81019080803573ffffffffffffffffffffffffffffffffffffffff16906020019092919050505061089f565b604051808215151515815260200191505060405180910390f35b60006103233361089f565b610395576040517f08c379a00000000000000000000000000000000000000000000000000000000081526004018080602001828103825260158152602001807f53656e646572206e6f7420617574686f72697a6564000000000000000000000081525060200191505060405180910390fd5b818073ffffffffffffffffffffffffffffffffffffffff163373ffffffffffffffffffffffffffffffffffffffff16141561041b576040517f08c379a0000000000000000000000000000000000000000000000000000000008152600401808060200182810382526032815260200180610fb36032913960400191505060405180910390fd5b6000610426846108b1565b9050423373ffffffffffffffffffffffffffffffffffffffff168573ffffffffffffffffffffffffffffffffffffffff167f2cd2ccd9fdafd17f79eb65acfadd60b995ffd6f8bc11cb882b7acb880924089284604051808215151515815260200191505060405180910390a48092505050919050565b6060600080548060200260200160405190810160405280929190818152602001828054801561052057602002820191906000526020600020905b8160009054906101000a900473ffffffffffffffffffffffffffffffffffffffff1673ffffffffffffffffffffffffffffffffffffffff16815260200190600101908083116104d6575b5050505050905090565b6000818154811061053757fe5b906000526020600020016000915054906101000a900473ffffffffffffffffffffffffffffffffffffffff1681565b60006105713361089f565b6105e3576040517f08c379a00000000000000000000000000000000000000000000000000000000081526004018080602001828103825260158152602001807f53656e646572206e6f7420617574686f72697a6564000000000000000000000081525060200191505060405180910390fd5b8173ffffffffffffffffffffffffffffffffffffffff163373ffffffffffffffffffffffffffffffffffffffff1614156106a757423373ffffffffffffffffffffffffffffffffffffffff168373ffffffffffffffffffffffffffffffffffffffff167f8ead7684a5c71c8b9e7ff0c17bb523de9890a9127d8b04e8f030a70ef480061c60006040518082151515158152602001806020018281038252602c815260200180610fe5602c91396040019250505060405180910390a46000905061080c565b60006106b283610a71565b90506060816106f6576040518060400160405280601b81526020017f4163636f756e7420697320616c726561647920616e2041646d696e000000000081525061072d565b6040518060400160405280602081526020017f41646d696e206163636f756e74206164646564207375636365737366756c6c798152505b9050423373ffffffffffffffffffffffffffffffffffffffff168573ffffffffffffffffffffffffffffffffffffffff167f8ead7684a5c71c8b9e7ff0c17bb523de9890a9127d8b04e8f030a70ef480061c8585604051808315151515815260200180602001828103825283818151815260200191508051906020019080838360005b838110156107cb5780820151818401526020810190506107b0565b50505050905090810190601f1680156107f85780820380516001836020036101000a031916815260200191505b50935050505060405180910390a481925050505b919050565b600061081c3361089f565b61088e576040517f08c379a00000000000000000000000000000000000000000000000000000000081526004018080602001828103825260158152602001807f53656e646572206e6f7420617574686f72697a6564000000000000000000000081525060200191505060405180910390fd5b6108988233610b75565b9050919050565b60006108aa82610f15565b9050919050565b600080600160008473ffffffffffffffffffffffffffffffffffffffff1673ffffffffffffffffffffffffffffffffffffffff16815260200190815260200160002054905060008111801561090b57506000805490508111155b15610a665760008054905081146109fe576000806001600080549050038154811061093257fe5b9060005260206000200160009054906101000a900473ffffffffffffffffffffffffffffffffffffffff169050806000600184038154811061097057fe5b9060005260206000200160006101000a81548173ffffffffffffffffffffffffffffffffffffffff021916908373ffffffffffffffffffffffffffffffffffffffff16021790555081600160008373ffffffffffffffffffffffffffffffffffffffff1673ffffffffffffffffffffffffffffffffffffffff16815260200190815260200160002081905550505b6001600081818054905003915081610a169190610f61565b506000600160008573ffffffffffffffffffffffffffffffffffffffff1673ffffffffffffffffffffffffffffffffffffffff168152602001908152602001600020819055506001915050610a6c565b60009150505b919050565b600080600160008473ffffffffffffffffffffffffffffffffffffffff1673ffffffffffffffffffffffffffffffffffffffff168152602001908152602001600020541415610b6b5760008290806001815401808255809150509060018203906000526020600020016000909192909190916101000a81548173ffffffffffffffffffffffffffffffffffffffff021916908373ffffffffffffffffffffffffffffffffffffffff160217905550600160008473ffffffffffffffffffffffffffffffffffffffff1673ffffffffffffffffffffffffffffffffffffffff1681526020019081526020016000208190555060019050610b70565b600090505b919050565b6000806001905060008090505b8451811015610f0a57848181518110610b9757fe5b602002602001015173ffffffffffffffffffffffffffffffffffffffff163373ffffffffffffffffffffffffffffffffffffffff161415610c7e57428473ffffffffffffffffffffffffffffffffffffffff16868381518110610bf657fe5b602002602001015173ffffffffffffffffffffffffffffffffffffffff167f8ead7684a5c71c8b9e7ff0c17bb523de9890a9127d8b04e8f030a70ef480061c60006040518082151515158152602001806020018281038252602c815260200180610fe5602c91396040019250505060405180910390a4818015610c77575060005b9150610efd565b610c9a858281518110610c8d57fe5b6020026020010151610f15565b15610d6857428473ffffffffffffffffffffffffffffffffffffffff16868381518110610cc357fe5b602002602001015173ffffffffffffffffffffffffffffffffffffffff167f8ead7684a5c71c8b9e7ff0c17bb523de9890a9127d8b04e8f030a70ef480061c60006040518082151515158152602001806020018281038252601b8152602001807f4163636f756e7420697320616c726561647920616e2041646d696e00000000008152506020019250505060405180910390a4818015610d61575060005b9150610efc565b6000610d86868381518110610d7957fe5b6020026020010151610a71565b9050606081610dca576040518060400160405280601b81526020017f4163636f756e7420697320616c726561647920616e2041646d696e0000000000815250610e01565b6040518060400160405280602081526020017f41646d696e206163636f756e74206164646564207375636365737366756c6c798152505b9050428673ffffffffffffffffffffffffffffffffffffffff16888581518110610e2757fe5b602002602001015173ffffffffffffffffffffffffffffffffffffffff167f8ead7684a5c71c8b9e7ff0c17bb523de9890a9127d8b04e8f030a70ef480061c8585604051808315151515815260200180602001828103825283818151815260200191508051906020019080838360005b83811015610eb2578082015181840152602081019050610e97565b50505050905090810190601f168015610edf5780820380516001836020036101000a031916815260200191505b50935050505060405180910390a4838015610ef75750815b935050505b5b8080600101915050610b82565b508091505092915050565b600080600160008473ffffffffffffffffffffffffffffffffffffffff1673ffffffffffffffffffffffffffffffffffffffff1681526020019081526020016000205414159050919050565b815481835581811115610f8857818360005260206000209182019101610f879190610f8d565b5b505050565b610faf91905b80821115610fab576000816000905550600101610f93565b5090565b9056fe43616e6e6f7420696e766f6b65206d6574686f642077697468206f776e206163636f756e7420617320706172616d65746572416464696e67206f776e206163636f756e742061732041646d696e206973206e6f74207065726d6974746564a265627a7a72305820a2fdc959ac0002a274e9be13c658d7e2a4bf0a4f626afb69d40e708f5274887d64736f6c63430005090032",
  "source": "pragma solidity 0.5.9;\n\nimport \"./AdminProxy.sol\";\nimport \"./AdminList.sol\";\n\n\ncontract Admin is AdminProxy, AdminList {\n    modifier onlyAdmin() {\n        require(isAuthorized(msg.sender), \"Sender not authorized\");\n        _;\n    }\n\n    modifier notSelf(address _address) {\n        require(msg.sender != _address, \"Cannot invoke method with own account as parameter\");\n        _;\n    }\n\n    constructor() public {\n        add(msg.sender);\n    }\n\n    function isAuthorized(address _address) public view returns (bool) {\n        return exists(_address);\n    }\n\n    function addAdmin(address _address) public onlyAdmin returns (bool) {\n        if (msg.sender == _address) {\n            emit AdminAdded(false, _address, msg.sender, block.timestamp, \"Adding own account as Admin is not permitted\");\n            return false;\n        } else {\n            bool result = add(_address);\n            string memory message = result ? \"Admin account added successfully\" : \"Account is already an Admin\";\n            emit AdminAdded(result, _address, msg.sender, block.timestamp, message);\n            return result;\n        }\n    }\n\n    function removeAdmin(address _address) public onlyAdmin notSelf(_address) returns (bool) {\n        bool removed = remove(_address);\n        emit AdminRemoved(removed, _address, msg.sender, block.timestamp);\n        return removed;\n    }\n\n    function getAdmins() public view returns (address[] memory){\n        return allowlist;\n    }\n\n    function addAdmins(address[] memory accounts) public onlyAdmin returns (bool) {\n        return addAll(accounts, msg.sender);\n    }\n}\n",
  "sourcePath": "/tmp/lioli/Permissionamento/contracts/Admin.sol",
  "compiler": {
    "name": "solc",
    "version": "0.5.9+commit.e560f70d.Emscripten.clang"
  },
  "schemaVersion": "3.4.14",
  "updatedAt": "2023-09-04T19:10:36.852Z",
  "networkType": "ethereum",
  "devdoc": {
    "methods": {}
  },
  "userdoc": {
    "methods": {}
  }
}