{
  "contractName": "NodeRules",
  "abi": [
    {
      "constant": true,
      "inputs": [
        {
          "name": "",
          "type": "uint256"
        }
      ],
      "name": "allowlist",
      "outputs": [
        {
          "name": "enodeHigh",
          "type": "bytes32"
        },
        {
          "name": "enodeLow",
          "type": "bytes32"
        },
        {
          "name": "nodeType",
          "type": "uint8"
        },
        {
          "name": "geoHash",
          "type": "bytes6"
        },
        {
          "name": "name",
          "type": "string"
        },
        {
          "name": "organization",
          "type": "string"
        }
      ],
      "payable": false,
      "stateMutability": "view",
      "type": "function"
    },
    {
      "inputs": [
        {
          "name": "_nodeIngressAddress",
          "type": "address"
        }
      ],
      "payable": false,
      "stateMutability": "nonpayable",
      "type": "constructor"
    },
    {
      "anonymous": false,
      "inputs": [
        {
          "indexed": false,
          "name": "nodeAdded",
          "type": "bool"
        },
        {
          "indexed": false,
          "name": "enodeHigh",
          "type": "bytes32"
        },
        {
          "indexed": false,
          "name": "enodeLow",
          "type": "bytes32"
        }
      ],
      "name": "NodeAdded",
      "type": "event"
    },
    {
      "anonymous": false,
      "inputs": [
        {
          "indexed": false,
          "name": "nodeRemoved",
          "type": "bool"
        },
        {
          "indexed": false,
          "name": "enodeHigh",
          "type": "bytes32"
        },
        {
          "indexed": false,
          "name": "enodeLow",
          "type": "bytes32"
        }
      ],
      "name": "NodeRemoved",
      "type": "event"
    },
    {
      "constant": true,
      "inputs": [],
      "name": "getContractVersion",
      "outputs": [
        {
          "name": "",
          "type": "uint256"
        }
      ],
      "payable": false,
      "stateMutability": "view",
      "type": "function"
    },
    {
      "constant": true,
      "inputs": [],
      "name": "isReadOnly",
      "outputs": [
        {
          "name": "",
          "type": "bool"
        }
      ],
      "payable": false,
      "stateMutability": "view",
      "type": "function"
    },
    {
      "constant": false,
      "inputs": [],
      "name": "enterReadOnly",
      "outputs": [
        {
          "name": "",
          "type": "bool"
        }
      ],
      "payable": false,
      "stateMutability": "nonpayable",
      "type": "function"
    },
    {
      "constant": false,
      "inputs": [],
      "name": "exitReadOnly",
      "outputs": [
        {
          "name": "",
          "type": "bool"
        }
      ],
      "payable": false,
      "stateMutability": "nonpayable",
      "type": "function"
    },
    {
      "constant": true,
      "inputs": [
        {
          "name": "sourceEnodeHigh",
          "type": "bytes32"
        },
        {
          "name": "sourceEnodeLow",
          "type": "bytes32"
        },
        {
          "name": "",
          "type": "bytes16"
        },
        {
          "name": "",
          "type": "uint16"
        },
        {
          "name": "destinationEnodeHigh",
          "type": "bytes32"
        },
        {
          "name": "destinationEnodeLow",
          "type": "bytes32"
        },
        {
          "name": "",
          "type": "bytes16"
        },
        {
          "name": "",
          "type": "uint16"
        }
      ],
      "name": "connectionAllowed",
      "outputs": [
        {
          "name": "",
          "type": "bytes32"
        }
      ],
      "payable": false,
      "stateMutability": "view",
      "type": "function"
    },
    {
      "constant": true,
      "inputs": [
        {
          "name": "enodeHigh",
          "type": "bytes32"
        },
        {
          "name": "enodeLow",
          "type": "bytes32"
        }
      ],
      "name": "enodePermitted",
      "outputs": [
        {
          "name": "",
          "type": "bool"
        }
      ],
      "payable": false,
      "stateMutability": "view",
      "type": "function"
    },
    {
      "constant": false,
      "inputs": [
        {
          "name": "enodeHigh",
          "type": "bytes32"
        },
        {
          "name": "enodeLow",
          "type": "bytes32"
        },
        {
          "name": "nodeType",
          "type": "uint8"
        },
        {
          "name": "geoHash",
          "type": "bytes6"
        },
        {
          "name": "name",
          "type": "string"
        },
        {
          "name": "organization",
          "type": "string"
        }
      ],
      "name": "addNodeDuringDeploy",
      "outputs": [
        {
          "name": "",
          "type": "bool"
        }
      ],
      "payable": false,
      "stateMutability": "nonpayable",
      "type": "function"
    },
    {
      "constant": false,
      "inputs": [],
      "name": "finishDeploy",
      "outputs": [],
      "payable": false,
      "stateMutability": "nonpayable",
      "type": "function"
    },
    {
      "constant": false,
      "inputs": [
        {
          "name": "enodeHigh",
          "type": "bytes32"
        },
        {
          "name": "enodeLow",
          "type": "bytes32"
        },
        {
          "name": "nodeType",
          "type": "uint8"
        },
        {
          "name": "geoHash",
          "type": "bytes6"
        },
        {
          "name": "name",
          "type": "string"
        },
        {
          "name": "organization",
          "type": "string"
        }
      ],
      "name": "addEnode",
      "outputs": [
        {
          "name": "",
          "type": "bool"
        }
      ],
      "payable": false,
      "stateMutability": "nonpayable",
      "type": "function"
    },
    {
      "constant": false,
      "inputs": [
        {
          "name": "enodeHigh",
          "type": "bytes32"
        },
        {
          "name": "enodeLow",
          "type": "bytes32"
        }
      ],
      "name": "removeEnode",
      "outputs": [
        {
          "name": "",
          "type": "bool"
        }
      ],
      "payable": false,
      "stateMutability": "nonpayable",
      "type": "function"
    },
    {
      "constant": true,
      "inputs": [],
      "name": "getSize",
      "outputs": [
        {
          "name": "",
          "type": "uint256"
        }
      ],
      "payable": false,
      "stateMutability": "view",
      "type": "function"
    },
    {
      "constant": true,
      "inputs": [
        {
          "name": "index",
          "type": "uint256"
        }
      ],
      "name": "getByIndex",
      "outputs": [
        {
          "name": "enodeHigh",
          "type": "bytes32"
        },
        {
          "name": "enodeLow",
          "type": "bytes32"
        },
        {
          "name": "nodeType",
          "type": "uint8"
        },
        {
          "name": "geoHash",
          "type": "bytes6"
        },
        {
          "name": "name",
          "type": "string"
        },
        {
          "name": "organization",
          "type": "string"
        }
      ],
      "payable": false,
      "stateMutability": "view",
      "type": "function"
    },
    {
      "constant": false,
      "inputs": [
        {
          "name": "addsRestrictions",
          "type": "bool"
        }
      ],
      "name": "triggerRulesChangeEvent",
      "outputs": [],
      "payable": false,
      "stateMutability": "nonpayable",
      "type": "function"
    }
  ],
  "bytecode": "0x60806040526000600260146101000a81548160ff021916908315150217905550620f424060035534801561003257600080fd5b50604051612b98380380612b988339818101604052602081101561005557600080fd5b810190808051906020019092919050505080600460006101000a81548173ffffffffffffffffffffffffffffffffffffffff021916908373ffffffffffffffffffffffffffffffffffffffff16021790555033600260006101000a81548173ffffffffffffffffffffffffffffffffffffffff021916908373ffffffffffffffffffffffffffffffffffffffff16021790555050612aa0806100f86000396000f3fe608060405234801561001057600080fd5b50600436106100ea5760003560e01c80637bd2ccc01161008c578063d8cec92511610066578063d8cec92514610908578063dc2a60f61461092a578063de8fa4311461094c578063f82963b21461096a576100ea565b80637bd2ccc0146107085780638aa10435146108ba578063cc3a1c41146108d8576100ea565b80632d883a73116100c85780632d883a73146101b15780633620b1df1461032857806369c45824146103df5780637a83820114610556576100ea565b80630c6e35d5146100ef578063145ca22a146101115780632463374714610161575b600080fd5b6100f7610974565b604051808215151515815260200191505060405180910390f35b6101476004803603604081101561012757600080fd5b810190808035906020019092919080359060200190929190505050610d25565b604051808215151515815260200191505060405180910390f35b6101976004803603604081101561017757600080fd5b810190808035906020019092919080359060200190929190505050611105565b604051808215151515815260200191505060405180910390f35b6101dd600480360360208110156101c757600080fd5b8101908080359060200190929190505050611119565b604051808781526020018681526020018560058111156101f957fe5b60ff1681526020018479ffffffffffffffffffffffffffffffffffffffffffffffffffff191679ffffffffffffffffffffffffffffffffffffffffffffffffffff191681526020018060200180602001838103835285818151815260200191508051906020019080838360005b83811015610281578082015181840152602081019050610266565b50505050905090810190601f1680156102ae5780820380516001836020036101000a031916815260200191505b50838103825284818151815260200191508051906020019080838360005b838110156102e75780820151818401526020810190506102cc565b50505050905090810190601f1680156103145780820380516001836020036101000a031916815260200191505b509850505050505050505060405180910390f35b6103c9600480360361010081101561033f57600080fd5b81019080803590602001909291908035906020019092919080356fffffffffffffffffffffffffffffffff19169060200190929190803561ffff169060200190929190803590602001909291908035906020019092919080356fffffffffffffffffffffffffffffffff19169060200190929190803561ffff169060200190929190505050611384565b6040518082815260200191505060405180910390f35b61040b600480360360208110156103f557600080fd5b8101908080359060200190929190505050611405565b6040518087815260200186815260200185600581111561042757fe5b60ff1681526020018479ffffffffffffffffffffffffffffffffffffffffffffffffffff191679ffffffffffffffffffffffffffffffffffffffffffffffffffff191681526020018060200180602001838103835285818151815260200191508051906020019080838360005b838110156104af578082015181840152602081019050610494565b50505050905090810190601f1680156104dc5780820380516001836020036101000a031916815260200191505b50838103825284818151815260200191508051906020019080838360005b838110156105155780820151818401526020810190506104fa565b50505050905090810190601f1680156105425780820380516001836020036101000a031916815260200191505b509850505050505050505060405180910390f35b6106ee600480360360c081101561056c57600080fd5b810190808035906020019092919080359060200190929190803560ff169060200190929190803579ffffffffffffffffffffffffffffffffffffffffffffffffffff19169060200190929190803590602001906401000000008111156105d157600080fd5b8201836020820111156105e357600080fd5b8035906020019184600183028401116401000000008311171561060557600080fd5b91908080601f016020809104026020016040519081016040528093929190818152602001838380828437600081840152601f19601f8201169050808301925050505050505091929192908035906020019064010000000081111561066857600080fd5b82018360208201111561067a57600080fd5b8035906020019184600183028401116401000000008311171561069c57600080fd5b91908080601f016020809104026020016040519081016040528093929190818152602001838380828437600081840152601f19601f820116905080830192505050505050509192919290505050611598565b604051808215151515815260200191505060405180910390f35b6108a0600480360360c081101561071e57600080fd5b810190808035906020019092919080359060200190929190803560ff169060200190929190803579ffffffffffffffffffffffffffffffffffffffffffffffffffff191690602001909291908035906020019064010000000081111561078357600080fd5b82018360208201111561079557600080fd5b803590602001918460018302840111640100000000831117156107b757600080fd5b91908080601f016020809104026020016040519081016040528093929190818152602001838380828437600081840152601f19601f8201169050808301925050505050505091929192908035906020019064010000000081111561081a57600080fd5b82018360208201111561082c57600080fd5b8035906020019184600183028401116401000000008311171561084e57600080fd5b91908080601f016020809104026020016040519081016040528093929190818152602001838380828437600081840152601f19601f8201169050808301925050505050505091929192905050506119ca565b604051808215151515815260200191505060405180910390f35b6108c2611db1565b6040518082815260200191505060405180910390f35b610906600480360360208110156108ee57600080fd5b81019080803515159060200190929190505050611dbb565b005b610910611e4f565b604051808215151515815260200191505060405180910390f35b610932612200565b604051808215151515815260200191505060405180910390f35b610954612217565b6040518082815260200191505060405180910390f35b610972612226565b005b600080600460009054906101000a900473ffffffffffffffffffffffffffffffffffffffff1673ffffffffffffffffffffffffffffffffffffffff16630d2020dd600460009054906101000a900473ffffffffffffffffffffffffffffffffffffffff1673ffffffffffffffffffffffffffffffffffffffff16631e7c27cb6040518163ffffffff1660e01b815260040160206040518083038186803b158015610a1d57600080fd5b505afa158015610a31573d6000803e3d6000fd5b505050506040513d6020811015610a4757600080fd5b81019080805190602001909291905050506040518263ffffffff1660e01b81526004018082815260200191505060206040518083038186803b158015610a8c57600080fd5b505afa158015610aa0573d6000803e3d6000fd5b505050506040513d6020811015610ab657600080fd5b81019080805190602001909291905050509050600073ffffffffffffffffffffffffffffffffffffffff168173ffffffffffffffffffffffffffffffffffffffff161415610b4f576040517f08c379a0000000000000000000000000000000000000000000000000000000008152600401808060200182810382526034815260200180612a136034913960400191505060405180910390fd5b8073ffffffffffffffffffffffffffffffffffffffff1663fe9fbb80336040518263ffffffff1660e01b8152600401808273ffffffffffffffffffffffffffffffffffffffff1673ffffffffffffffffffffffffffffffffffffffff16815260200191505060206040518083038186803b158015610bcc57600080fd5b505afa158015610be0573d6000803e3d6000fd5b505050506040513d6020811015610bf657600080fd5b8101908080519060200190929190505050610c79576040517f08c379a00000000000000000000000000000000000000000000000000000000081526004018080602001828103825260158152602001807f53656e646572206e6f7420617574686f72697a6564000000000000000000000081525060200191505060405180910390fd5b60011515600260149054906101000a900460ff16151514610d02576040517f08c379a00000000000000000000000000000000000000000000000000000000081526004018080602001828103825260158152602001807f4e6f7420696e2072656164206f6e6c79206d6f6465000000000000000000000081525060200191505060405180910390fd5b6000600260146101000a81548160ff021916908315150217905550600191505090565b600080600460009054906101000a900473ffffffffffffffffffffffffffffffffffffffff1673ffffffffffffffffffffffffffffffffffffffff16630d2020dd600460009054906101000a900473ffffffffffffffffffffffffffffffffffffffff1673ffffffffffffffffffffffffffffffffffffffff16631e7c27cb6040518163ffffffff1660e01b815260040160206040518083038186803b158015610dce57600080fd5b505afa158015610de2573d6000803e3d6000fd5b505050506040513d6020811015610df857600080fd5b81019080805190602001909291905050506040518263ffffffff1660e01b81526004018082815260200191505060206040518083038186803b158015610e3d57600080fd5b505afa158015610e51573d6000803e3d6000fd5b505050506040513d6020811015610e6757600080fd5b81019080805190602001909291905050509050600073ffffffffffffffffffffffffffffffffffffffff168173ffffffffffffffffffffffffffffffffffffffff161415610f00576040517f08c379a0000000000000000000000000000000000000000000000000000000008152600401808060200182810382526034815260200180612a136034913960400191505060405180910390fd5b8073ffffffffffffffffffffffffffffffffffffffff1663fe9fbb80336040518263ffffffff1660e01b8152600401808273ffffffffffffffffffffffffffffffffffffffff1673ffffffffffffffffffffffffffffffffffffffff16815260200191505060206040518083038186803b158015610f7d57600080fd5b505afa158015610f91573d6000803e3d6000fd5b505050506040513d6020811015610fa757600080fd5b810190808051906020019092919050505061102a576040517f08c379a00000000000000000000000000000000000000000000000000000000081526004018080602001828103825260158152602001807f53656e646572206e6f7420617574686f72697a6564000000000000000000000081525060200191505060405180910390fd5b600260149054906101000a900460ff1615611090576040517f08c379a000000000000000000000000000000000000000000000000000000000815260040180806020018281038252602b8152602001806129e8602b913960400191505060405180910390fd5b600061109c858561226a565b905080156110af576110ae6001611dbb565b5b7fc270688d30b35680c9c3108cda7d6b7c53d88d3790dacaedab95af73c9614fb28186866040518084151515158152602001838152602001828152602001935050505060405180910390a1809250505092915050565b600061111183836125f9565b905092915050565b600080600080606080600087101580156111395750611136612623565b87105b1561137a576111466127e8565b6000888154811061115357fe5b90600052602060002090600502016040518060c001604052908160008201548152602001600182015481526020016002820160009054906101000a900460ff16600581111561119e57fe5b60058111156111a957fe5b81526020016002820160019054906101000a900460d01b79ffffffffffffffffffffffffffffffffffffffffffffffffffff191679ffffffffffffffffffffffffffffffffffffffffffffffffffff19168152602001600382018054600181600116156101000203166002900480601f0160208091040260200160405190810160405280929190818152602001828054600181600116156101000203166002900480156112975780601f1061126c57610100808354040283529160200191611297565b820191906000526020600020905b81548152906001019060200180831161127a57829003601f168201915b50505050508152602001600482018054600181600116156101000203166002900480601f0160208091040260200160405190810160405280929190818152602001828054600181600116156101000203166002900480156113395780601f1061130e57610100808354040283529160200191611339565b820191906000526020600020905b81548152906001019060200180831161131c57829003601f168201915b5050505050815250509050806000015181602001518260400151836060015184608001518560a001518191508090509650965096509650965096505061137b565b5b91939550919395565b60006113908989611105565b80156113a257506113a18585611105565b5b156113d2577fffffffffffffffffffffffffffffffffffffffffffffffffffffffffffffffff60001b90506113f9565b7f7fffffffffffffffffffffffffffffffffffffffffffffffffffffffffffffff60001b90505b98975050505050505050565b6000818154811061141257fe5b90600052602060002090600502016000915090508060000154908060010154908060020160009054906101000a900460ff16908060020160019054906101000a900460d01b90806003018054600181600116156101000203166002900480601f0160208091040260200160405190810160405280929190818152602001828054600181600116156101000203166002900480156114f05780601f106114c5576101008083540402835291602001916114f0565b820191906000526020600020905b8154815290600101906020018083116114d357829003601f168201915b505050505090806004018054600181600116156101000203166002900480601f01602080910402602001604051908101604052809291908181526020018280546001816001161561010002031660029004801561158e5780601f106115635761010080835404028352916020019161158e565b820191906000526020600020905b81548152906001019060200180831161157157829003601f168201915b5050505050905086565b600080600460009054906101000a900473ffffffffffffffffffffffffffffffffffffffff1673ffffffffffffffffffffffffffffffffffffffff16630d2020dd600460009054906101000a900473ffffffffffffffffffffffffffffffffffffffff1673ffffffffffffffffffffffffffffffffffffffff16631e7c27cb6040518163ffffffff1660e01b815260040160206040518083038186803b15801561164157600080fd5b505afa158015611655573d6000803e3d6000fd5b505050506040513d602081101561166b57600080fd5b81019080805190602001909291905050506040518263ffffffff1660e01b81526004018082815260200191505060206040518083038186803b1580156116b057600080fd5b505afa1580156116c4573d6000803e3d6000fd5b505050506040513d60208110156116da57600080fd5b81019080805190602001909291905050509050600073ffffffffffffffffffffffffffffffffffffffff168173ffffffffffffffffffffffffffffffffffffffff161415611773576040517f08c379a0000000000000000000000000000000000000000000000000000000008152600401808060200182810382526034815260200180612a136034913960400191505060405180910390fd5b8073ffffffffffffffffffffffffffffffffffffffff1663fe9fbb80336040518263ffffffff1660e01b8152600401808273ffffffffffffffffffffffffffffffffffffffff1673ffffffffffffffffffffffffffffffffffffffff16815260200191505060206040518083038186803b1580156117f057600080fd5b505afa158015611804573d6000803e3d6000fd5b505050506040513d602081101561181a57600080fd5b810190808051906020019092919050505061189d576040517f08c379a00000000000000000000000000000000000000000000000000000000081526004018080602001828103825260158152602001807f53656e646572206e6f7420617574686f72697a6564000000000000000000000081525060200191505060405180910390fd5b600260149054906101000a900460ff1615611903576040517f08c379a000000000000000000000000000000000000000000000000000000000815260040180806020018281038252602b8152602001806129e8602b913960400191505060405180910390fd5b600260009054906101000a900473ffffffffffffffffffffffffffffffffffffffff1673ffffffffffffffffffffffffffffffffffffffff163373ffffffffffffffffffffffffffffffffffffffff16146119a9576040517f08c379a0000000000000000000000000000000000000000000000000000000008152600401808060200182810382526025815260200180612a476025913960400191505060405180910390fd5b60006119b989898989898961262f565b905080925050509695505050505050565b600080600460009054906101000a900473ffffffffffffffffffffffffffffffffffffffff1673ffffffffffffffffffffffffffffffffffffffff16630d2020dd600460009054906101000a900473ffffffffffffffffffffffffffffffffffffffff1673ffffffffffffffffffffffffffffffffffffffff16631e7c27cb6040518163ffffffff1660e01b815260040160206040518083038186803b158015611a7357600080fd5b505afa158015611a87573d6000803e3d6000fd5b505050506040513d6020811015611a9d57600080fd5b81019080805190602001909291905050506040518263ffffffff1660e01b81526004018082815260200191505060206040518083038186803b158015611ae257600080fd5b505afa158015611af6573d6000803e3d6000fd5b505050506040513d6020811015611b0c57600080fd5b81019080805190602001909291905050509050600073ffffffffffffffffffffffffffffffffffffffff168173ffffffffffffffffffffffffffffffffffffffff161415611ba5576040517f08c379a0000000000000000000000000000000000000000000000000000000008152600401808060200182810382526034815260200180612a136034913960400191505060405180910390fd5b8073ffffffffffffffffffffffffffffffffffffffff1663fe9fbb80336040518263ffffffff1660e01b8152600401808273ffffffffffffffffffffffffffffffffffffffff1673ffffffffffffffffffffffffffffffffffffffff16815260200191505060206040518083038186803b158015611c2257600080fd5b505afa158015611c36573d6000803e3d6000fd5b505050506040513d6020811015611c4c57600080fd5b8101908080519060200190929190505050611ccf576040517f08c379a00000000000000000000000000000000000000000000000000000000081526004018080602001828103825260158152602001807f53656e646572206e6f7420617574686f72697a6564000000000000000000000081525060200191505060405180910390fd5b600260149054906101000a900460ff1615611d35576040517f08c379a000000000000000000000000000000000000000000000000000000000815260040180806020018281038252602b8152602001806129e8602b913960400191505060405180910390fd5b6000611d4589898989898961262f565b90508015611d5857611d576000611dbb565b5b7edf97c0b1603e46bf80aef7a0b45c37840021ba32897b0ed5303a1269d46ad6818a8a6040518084151515158152602001838152602001828152602001935050505060405180910390a180925050509695505050505050565b6000600354905090565b600460009054906101000a900473ffffffffffffffffffffffffffffffffffffffff1673ffffffffffffffffffffffffffffffffffffffff16634dc3fefc826040518263ffffffff1660e01b81526004018082151515158152602001915050600060405180830381600087803b158015611e3457600080fd5b505af1158015611e48573d6000803e3d6000fd5b5050505050565b600080600460009054906101000a900473ffffffffffffffffffffffffffffffffffffffff1673ffffffffffffffffffffffffffffffffffffffff16630d2020dd600460009054906101000a900473ffffffffffffffffffffffffffffffffffffffff1673ffffffffffffffffffffffffffffffffffffffff16631e7c27cb6040518163ffffffff1660e01b815260040160206040518083038186803b158015611ef857600080fd5b505afa158015611f0c573d6000803e3d6000fd5b505050506040513d6020811015611f2257600080fd5b81019080805190602001909291905050506040518263ffffffff1660e01b81526004018082815260200191505060206040518083038186803b158015611f6757600080fd5b505afa158015611f7b573d6000803e3d6000fd5b505050506040513d6020811015611f9157600080fd5b81019080805190602001909291905050509050600073ffffffffffffffffffffffffffffffffffffffff168173ffffffffffffffffffffffffffffffffffffffff16141561202a576040517f08c379a0000000000000000000000000000000000000000000000000000000008152600401808060200182810382526034815260200180612a136034913960400191505060405180910390fd5b8073ffffffffffffffffffffffffffffffffffffffff1663fe9fbb80336040518263ffffffff1660e01b8152600401808273ffffffffffffffffffffffffffffffffffffffff1673ffffffffffffffffffffffffffffffffffffffff16815260200191505060206040518083038186803b1580156120a757600080fd5b505afa1580156120bb573d6000803e3d6000fd5b505050506040513d60208110156120d157600080fd5b8101908080519060200190929190505050612154576040517f08c379a00000000000000000000000000000000000000000000000000000000081526004018080602001828103825260158152602001807f53656e646572206e6f7420617574686f72697a6564000000000000000000000081525060200191505060405180910390fd5b60001515600260149054906101000a900460ff161515146121dd576040517f08c379a00000000000000000000000000000000000000000000000000000000081526004018080602001828103825260198152602001807f416c726561647920696e2072656164206f6e6c79206d6f64650000000000000081525060200191505060405180910390fd5b6001600260146101000a81548160ff021916908315150217905550600191505090565b6000600260149054906101000a900460ff16905090565b6000612221612623565b905090565b6000600260006101000a81548173ffffffffffffffffffffffffffffffffffffffff021916908373ffffffffffffffffffffffffffffffffffffffff160217905550565b60008061227784846127ac565b90506000600160008381526020019081526020016000205490506000811180156122a657506000805490508111155b156125ec5760008054905081146125af576122bf6127e8565b6000600160008054905003815481106122d457fe5b90600052602060002090600502016040518060c001604052908160008201548152602001600182015481526020016002820160009054906101000a900460ff16600581111561231f57fe5b600581111561232a57fe5b81526020016002820160019054906101000a900460d01b79ffffffffffffffffffffffffffffffffffffffffffffffffffff191679ffffffffffffffffffffffffffffffffffffffffffffffffffff19168152602001600382018054600181600116156101000203166002900480601f0160208091040260200160405190810160405280929190818152602001828054600181600116156101000203166002900480156124185780601f106123ed57610100808354040283529160200191612418565b820191906000526020600020905b8154815290600101906020018083116123fb57829003601f168201915b50505050508152602001600482018054600181600116156101000203166002900480601f0160208091040260200160405190810160405280929190818152602001828054600181600116156101000203166002900480156124ba5780601f1061248f576101008083540402835291602001916124ba565b820191906000526020600020905b81548152906001019060200180831161249d57829003601f168201915b505050505081525050905080600060018403815481106124d657fe5b9060005260206000209060050201600082015181600001556020820151816001015560408201518160020160006101000a81548160ff0219169083600581111561251c57fe5b021790555060608201518160020160016101000a81548165ffffffffffff021916908360d01c0217905550608082015181600301908051906020019061256392919061284c565b5060a082015181600401908051906020019061258092919061284c565b50905050816001600061259b846000015185602001516127ac565b815260200190815260200160002081905550505b60016000818180549050039150816125c791906128cc565b50600060016000848152602001908152602001600020819055506001925050506125f3565b6000925050505b92915050565b6000806001600061260a86866127ac565b8152602001908152602001600020541415905092915050565b60008080549050905090565b60008061263c88886127ac565b905060006001600083815260200190815260200160002054141561279c5760006040518060c001604052808a815260200189815260200188600581111561267f57fe5b81526020018779ffffffffffffffffffffffffffffffffffffffffffffffffffff191681526020018681526020018581525090806001815401808255809150509060018203906000526020600020906005020160009091929091909150600082015181600001556020820151816001015560408201518160020160006101000a81548160ff0219169083600581111561271457fe5b021790555060608201518160020160016101000a81548165ffffffffffff021916908360d01c0217905550608082015181600301908051906020019061275b92919061284c565b5060a082015181600401908051906020019061277892919061284c565b505050600160008381526020019081526020016000208190555060019150506127a2565b60009150505b9695505050505050565b6000828260405160200180838152602001828152602001925050506040516020818303038152906040528051906020012060001c905092915050565b6040518060c0016040528060008019168152602001600080191681526020016000600581111561281457fe5b8152602001600079ffffffffffffffffffffffffffffffffffffffffffffffffffff1916815260200160608152602001606081525090565b828054600181600116156101000203166002900490600052602060002090601f016020900481019282601f1061288d57805160ff19168380011785556128bb565b828001600101855582156128bb579182015b828111156128ba57825182559160200191906001019061289f565b5b5090506128c891906128fe565b5090565b8154818355818111156128f9576005028160050283600052602060002091820191016128f89190612923565b5b505050565b61292091905b8082111561291c576000816000905550600101612904565b5090565b90565b61299c91905b808211156129985760008082016000905560018201600090556002820160006101000a81549060ff02191690556002820160016101000a81549065ffffffffffff021916905560038201600061297f919061299f565b60048201600061298f919061299f565b50600501612929565b5090565b90565b50805460018160011615610100020316600290046000825580601f106129c557506129e4565b601f0160209004906000526020600020908101906129e391906128fe565b5b5056fe496e2072656164206f6e6c79206d6f64653a2072756c65732063616e6e6f74206265206d6f646966696564496e677265737320636f6e7472616374206d75737420686176652041646d696e20636f6e747261637420726567697374657265644f6e6c7920616e206f776e65722063616e2063616c6c20746869732066756e6374696f6e2ea265627a7a72305820abcb45f6848a2eddb6ecf930f6c6e15e3b3eab912e381f8ab2ed1fa7f1c7271864736f6c63430005090032",
  "source": "pragma solidity 0.5.9;\n\nimport \"./NodeRulesProxy.sol\";\nimport \"./NodeRulesList.sol\";\nimport \"./NodeIngress.sol\";\nimport \"./Admin.sol\";\n\ncontract NodeRules is NodeRulesProxy, NodeRulesList {\n\n    event NodeAdded(\n        bool nodeAdded,\n        bytes32 enodeHigh,\n        bytes32 enodeLow\n    );\n\n    event NodeRemoved(\n        bool nodeRemoved,\n        bytes32 enodeHigh,\n        bytes32 enodeLow\n    );\n    address owner;\n\n    // in read-only mode rules can't be added/removed\n    // this will be used to protect data when upgrading contracts\n    bool readOnlyMode = false;\n    // version of this contract: semver like 1.2.14 represented like 001002014\n    uint version = 1000000;\n\n    NodeIngress private nodeIngressContract;\n\n    modifier onlyOnEditMode() {\n        require(!readOnlyMode, \"In read only mode: rules cannot be modified\");\n        _;\n    }\n\n    modifier onlyOwner(){\n        require(msg.sender == owner, \"Only an owner can call this function.\");\n        _;\n    }\n\n    modifier onlyAdmin() {\n        address adminContractAddress = nodeIngressContract.getContractAddress(nodeIngressContract.ADMIN_CONTRACT());\n\n        require(adminContractAddress != address(0), \"Ingress contract must have Admin contract registered\");\n        require(Admin(adminContractAddress).isAuthorized(msg.sender), \"Sender not authorized\");\n        _;\n    }\n\n    constructor (NodeIngress _nodeIngressAddress) public {\n        nodeIngressContract = _nodeIngressAddress;\n        owner = msg.sender;\n    }\n\n    // VERSION\n    function getContractVersion() public view returns (uint) {\n        return version;\n    }\n\n    // READ ONLY MODE\n    function isReadOnly() public view returns (bool) {\n        return readOnlyMode;\n    }\n\n    function enterReadOnly() public onlyAdmin returns (bool) {\n        require(readOnlyMode == false, \"Already in read only mode\");\n        readOnlyMode = true;\n        return true;\n    }\n\n    function exitReadOnly() public onlyAdmin returns (bool) {\n        require(readOnlyMode == true, \"Not in read only mode\");\n        readOnlyMode = false;\n        return true;\n    }\n\n    function connectionAllowed(\n        bytes32 sourceEnodeHigh,\n        bytes32 sourceEnodeLow,\n        bytes16,\n        uint16,\n        bytes32 destinationEnodeHigh,\n        bytes32 destinationEnodeLow,\n        bytes16,\n        uint16\n    ) public view returns (bytes32) {\n        if (\n            enodePermitted (\n                sourceEnodeHigh,\n                sourceEnodeLow\n            ) && enodePermitted(\n                destinationEnodeHigh,\n                destinationEnodeLow\n            )\n        ) {\n            return 0xFFFFFFFFFFFFFFFFFFFFFFFFFFFFFFFFFFFFFFFFFFFFFFFFFFFFFFFFFFFFFFFF;\n        } else {\n            return 0x7FFFFFFFFFFFFFFFFFFFFFFFFFFFFFFFFFFFFFFFFFFFFFFFFFFFFFFFFFFFFFFF;\n        }\n    }\n\n    function enodePermitted(\n        bytes32 enodeHigh,\n        bytes32 enodeLow\n    ) public view returns (bool) {\n        return exists(enodeHigh, enodeLow);\n    }\n\n    function addNodeDuringDeploy(\n        bytes32 enodeHigh,\n        bytes32 enodeLow,\n        NodeType nodeType,\n        bytes6 geoHash,\n        string memory name,\n        string memory organization\n    ) public onlyAdmin onlyOnEditMode onlyOwner returns (bool){\n        bool added = add(enodeHigh, enodeLow, nodeType, geoHash, name, organization);\n        return added;\n    }\n\n    function finishDeploy () public {\n        owner = address(0);\n    }\n\n    function addEnode(\n        bytes32 enodeHigh,\n        bytes32 enodeLow,\n        NodeType nodeType,\n        bytes6 geoHash,\n        string memory name,\n        string memory organization\n    ) public onlyAdmin onlyOnEditMode returns (bool) {\n        bool added = add(enodeHigh, enodeLow, nodeType, geoHash, name, organization);\n\n        if (added) {\n            triggerRulesChangeEvent(false);\n        }\n        emit NodeAdded(\n            added,\n            enodeHigh,\n            enodeLow\n        );\n\n        return added;\n    }\n\n    function removeEnode(\n        bytes32 enodeHigh,\n        bytes32 enodeLow\n    ) public onlyAdmin onlyOnEditMode returns (bool) {\n        bool removed = remove(enodeHigh, enodeLow);\n\n        if (removed) {\n            triggerRulesChangeEvent(true);\n        }\n        emit NodeRemoved(\n            removed,\n            enodeHigh,\n            enodeLow\n        );\n\n        return removed;\n    }\n\n    function getSize() public view returns (uint) {\n        return size();\n    }\n\n    function getByIndex(uint index) public view returns (bytes32 enodeHigh, bytes32 enodeLow, NodeType nodeType, bytes6 geoHash, string memory name, string memory organization) {\n        if (index >= 0 && index < size()) {\n            enode memory item = allowlist[index];\n            return (item.enodeHigh, item.enodeLow, item.nodeType, item.geoHash, item.name, item.organization);\n        }\n    }\n\n    function triggerRulesChangeEvent(bool addsRestrictions) public {\n        nodeIngressContract.emitRulesChangeEvent(addsRestrictions);\n    }\n}\n",
  "sourcePath": "/tmp/lioli/Permissionamento/contracts/NodeRules.sol",
  "compiler": {
    "name": "solc",
    "version": "0.5.9+commit.e560f70d.Emscripten.clang"
  },
  "schemaVersion": "3.4.14",
  "updatedAt": "2023-09-04T19:10:20.298Z",
  "networkType": "ethereum",
  "devdoc": {
    "methods": {}
  },
  "userdoc": {
    "methods": {}
  }
}